{
  "contractName": "AnteToken",
  "abi": [
    {
      "constant": true,
      "inputs": [],
      "name": "name",
      "outputs": [
        {
          "name": "",
          "type": "string"
        }
      ],
      "payable": false,
      "stateMutability": "view",
      "type": "function"
    },
    {
      "constant": true,
      "inputs": [],
      "name": "diceAddress",
      "outputs": [
        {
          "name": "",
          "type": "address"
        }
      ],
      "payable": false,
      "stateMutability": "view",
      "type": "function"
    },
    {
      "constant": true,
      "inputs": [],
      "name": "decimals",
      "outputs": [
        {
          "name": "",
          "type": "uint256"
        }
      ],
      "payable": false,
      "stateMutability": "view",
      "type": "function"
    },
    {
      "constant": true,
      "inputs": [],
      "name": "_totalSupply",
      "outputs": [
        {
          "name": "",
          "type": "uint256"
        }
      ],
      "payable": false,
      "stateMutability": "view",
      "type": "function"
    },
    {
      "constant": true,
      "inputs": [],
      "name": "_minedSupply",
      "outputs": [
        {
          "name": "",
          "type": "uint256"
        }
      ],
      "payable": false,
      "stateMutability": "view",
      "type": "function"
    },
    {
      "constant": true,
      "inputs": [],
      "name": "owner",
      "outputs": [
        {
          "name": "",
          "type": "address"
        }
      ],
      "payable": false,
      "stateMutability": "view",
      "type": "function"
    },
    {
      "constant": true,
      "inputs": [],
      "name": "symbol",
      "outputs": [
        {
          "name": "",
          "type": "string"
        }
      ],
      "payable": false,
      "stateMutability": "view",
      "type": "function"
    },
    {
      "constant": false,
      "inputs": [
        {
          "name": "newOwner",
          "type": "address"
        }
      ],
      "name": "transferOwnership",
      "outputs": [],
      "payable": false,
      "stateMutability": "nonpayable",
      "type": "function"
    },
    {
      "inputs": [
        {
          "name": "dice",
          "type": "address"
        }
      ],
      "payable": false,
      "stateMutability": "nonpayable",
      "type": "constructor"
    },
    {
      "payable": true,
      "stateMutability": "payable",
      "type": "fallback"
    },
    {
      "anonymous": false,
      "inputs": [
        {
          "indexed": true,
          "name": "purchaser",
          "type": "address"
        },
        {
          "indexed": true,
          "name": "beneficiary",
          "type": "address"
        },
        {
          "indexed": false,
          "name": "value",
          "type": "uint256"
        },
        {
          "indexed": false,
          "name": "amount",
          "type": "uint256"
        }
      ],
      "name": "TokenPurchase",
      "type": "event"
    },
    {
      "anonymous": false,
      "inputs": [
        {
          "indexed": true,
          "name": "from",
          "type": "address"
        },
        {
          "indexed": true,
          "name": "to",
          "type": "address"
        },
        {
          "indexed": false,
          "name": "tokens",
          "type": "uint256"
        }
      ],
      "name": "Transfer",
      "type": "event"
    },
    {
      "anonymous": false,
      "inputs": [
        {
          "indexed": true,
          "name": "tokenOwner",
          "type": "address"
        },
        {
          "indexed": true,
          "name": "spender",
          "type": "address"
        },
        {
          "indexed": false,
          "name": "tokens",
          "type": "uint256"
        }
      ],
      "name": "Approval",
      "type": "event"
    },
    {
      "constant": false,
      "inputs": [
        {
          "name": "value",
          "type": "uint256"
        }
      ],
      "name": "mine",
      "outputs": [],
      "payable": false,
      "stateMutability": "nonpayable",
      "type": "function"
    },
    {
      "constant": false,
      "inputs": [
        {
          "name": "from",
          "type": "address"
        },
        {
          "name": "value",
          "type": "uint256"
        }
      ],
      "name": "freeze",
      "outputs": [],
      "payable": false,
      "stateMutability": "nonpayable",
      "type": "function"
    },
    {
      "constant": true,
      "inputs": [],
      "name": "minedSupply",
      "outputs": [
        {
          "name": "",
          "type": "uint256"
        }
      ],
      "payable": false,
      "stateMutability": "view",
      "type": "function"
    },
    {
      "constant": true,
      "inputs": [],
      "name": "totalSupply",
      "outputs": [
        {
          "name": "",
          "type": "uint256"
        }
      ],
      "payable": false,
      "stateMutability": "view",
      "type": "function"
    },
    {
      "constant": true,
      "inputs": [
        {
          "name": "who",
          "type": "address"
        }
      ],
      "name": "balanceOf",
      "outputs": [
        {
          "name": "",
          "type": "uint256"
        }
      ],
      "payable": false,
      "stateMutability": "view",
      "type": "function"
    },
    {
      "constant": false,
      "inputs": [
        {
          "name": "to",
          "type": "address"
        },
        {
          "name": "value",
          "type": "uint256"
        }
      ],
      "name": "transfer",
      "outputs": [
        {
          "name": "success",
          "type": "bool"
        }
      ],
      "payable": false,
      "stateMutability": "nonpayable",
      "type": "function"
    },
    {
      "constant": false,
      "inputs": [
        {
          "name": "from",
          "type": "address"
        },
        {
          "name": "to",
          "type": "address"
        },
        {
          "name": "value",
          "type": "uint256"
        }
      ],
      "name": "transferFrom",
      "outputs": [
        {
          "name": "success",
          "type": "bool"
        }
      ],
      "payable": false,
      "stateMutability": "nonpayable",
      "type": "function"
    },
    {
      "constant": false,
      "inputs": [
        {
          "name": "spender",
          "type": "address"
        },
        {
          "name": "value",
          "type": "uint256"
        }
      ],
      "name": "approve",
      "outputs": [
        {
          "name": "success",
          "type": "bool"
        }
      ],
      "payable": false,
      "stateMutability": "nonpayable",
      "type": "function"
    },
    {
      "constant": true,
      "inputs": [
        {
          "name": "_owner",
          "type": "address"
        },
        {
          "name": "spender",
          "type": "address"
        }
      ],
      "name": "allowance",
      "outputs": [
        {
          "name": "",
          "type": "uint256"
        }
      ],
      "payable": false,
      "stateMutability": "view",
      "type": "function"
    }
  ],
  "bytecode": "0x60806040526040805190810160405280600f81526020017f416e746520546f6b656e6f6d6963730000000000000000000000000000000000815250600190805190602001906200005192919062000231565b506040805190810160405280600481526020017f414e544500000000000000000000000000000000000000000000000000000000815250600290805190602001906200009f92919062000231565b5060066003556601c6bf526340006004556000600855348015620000c257600080fd5b50d38015620000d057600080fd5b50d28015620000de57600080fd5b506040516020806200193f83398101806040528101908080519060200190929190505050336000806101000a81548173ffffffffffffffffffffffffffffffffffffffff021916908373ffffffffffffffffffffffffffffffffffffffff16021790555080600760006101000a81548173ffffffffffffffffffffffffffffffffffffffff021916908373ffffffffffffffffffffffffffffffffffffffff160217905550600060056000600760009054906101000a900473ffffffffffffffffffffffffffffffffffffffff1673ffffffffffffffffffffffffffffffffffffffff1673ffffffffffffffffffffffffffffffffffffffff16815260200190815260200160002081905550336000806101000a81548173ffffffffffffffffffffffffffffffffffffffff021916908373ffffffffffffffffffffffffffffffffffffffff16021790555050620002e0565b828054600181600116156101000203166002900490600052602060002090601f016020900481019282601f106200027457805160ff1916838001178555620002a5565b82800160010185558215620002a5579182015b82811115620002a457825182559160200191906001019062000287565b5b509050620002b49190620002b8565b5090565b620002dd91905b80821115620002d9576000816000905550600101620002bf565b5090565b90565b61164f80620002f06000396000f3006080604052600436106100f1576000357c0100000000000000000000000000000000000000000000000000000000900463ffffffff16806306fdde03146100f6578063095ea7b3146101a057806318160ddd1461021f57806319ee3a091461026457806323b872dd146102d557806324bce60c14610374578063313ce567146103db5780633eaaf86b146104205780634d474898146104655780636386d2ac146104ac57806370a08231146104f15780638a4e5d00146105625780638da5cb5b146105a757806395d89b4114610618578063a9059cbb146106c2578063dd62ed3e14610741578063f2fde38b146107d2575b600080fd5b34801561010257600080fd5b50d3801561010f57600080fd5b50d2801561011c57600080fd5b5061012561082f565b6040518080602001828103825283818151815260200191508051906020019080838360005b8381101561016557808201518184015260208101905061014a565b50505050905090810190601f1680156101925780820380516001836020036101000a031916815260200191505b509250505060405180910390f35b3480156101ac57600080fd5b50d380156101b957600080fd5b50d280156101c657600080fd5b50610205600480360381019080803573ffffffffffffffffffffffffffffffffffffffff169060200190929190803590602001909291905050506108cd565b604051808215151515815260200191505060405180910390f35b34801561022b57600080fd5b50d3801561023857600080fd5b50d2801561024557600080fd5b5061024e610a19565b6040518082815260200191505060405180910390f35b34801561027057600080fd5b50d3801561027d57600080fd5b50d2801561028a57600080fd5b50610293610a23565b604051808273ffffffffffffffffffffffffffffffffffffffff1673ffffffffffffffffffffffffffffffffffffffff16815260200191505060405180910390f35b3480156102e157600080fd5b50d380156102ee57600080fd5b50d280156102fb57600080fd5b5061035a600480360381019080803573ffffffffffffffffffffffffffffffffffffffff169060200190929190803573ffffffffffffffffffffffffffffffffffffffff16906020019092919080359060200190929190505050610a49565b604051808215151515815260200191505060405180910390f35b34801561038057600080fd5b50d3801561038d57600080fd5b50d2801561039a57600080fd5b506103d9600480360381019080803573ffffffffffffffffffffffffffffffffffffffff16906020019092919080359060200190929190505050610dd6565b005b3480156103e757600080fd5b50d380156103f457600080fd5b50d2801561040157600080fd5b5061040a611057565b6040518082815260200191505060405180910390f35b34801561042c57600080fd5b50d3801561043957600080fd5b50d2801561044657600080fd5b5061044f61105d565b6040518082815260200191505060405180910390f35b34801561047157600080fd5b50d3801561047e57600080fd5b50d2801561048b57600080fd5b506104aa60048036038101908080359060200190929190505050611063565b005b3480156104b857600080fd5b50d380156104c557600080fd5b50d280156104d257600080fd5b506104db6111b6565b6040518082815260200191505060405180910390f35b3480156104fd57600080fd5b50d3801561050a57600080fd5b50d2801561051757600080fd5b5061054c600480360381019080803573ffffffffffffffffffffffffffffffffffffffff1690602001909291905050506111c0565b6040518082815260200191505060405180910390f35b34801561056e57600080fd5b50d3801561057b57600080fd5b50d2801561058857600080fd5b50610591611209565b6040518082815260200191505060405180910390f35b3480156105b357600080fd5b50d380156105c057600080fd5b50d280156105cd57600080fd5b506105d661120f565b604051808273ffffffffffffffffffffffffffffffffffffffff1673ffffffffffffffffffffffffffffffffffffffff16815260200191505060405180910390f35b34801561062457600080fd5b50d3801561063157600080fd5b50d2801561063e57600080fd5b50610647611234565b6040518080602001828103825283818151815260200191508051906020019080838360005b8381101561068757808201518184015260208101905061066c565b50505050905090810190601f1680156106b45780820380516001836020036101000a031916815260200191505b509250505060405180910390f35b3480156106ce57600080fd5b50d380156106db57600080fd5b50d280156106e857600080fd5b50610727600480360381019080803573ffffffffffffffffffffffffffffffffffffffff169060200190929190803590602001909291905050506112d2565b604051808215151515815260200191505060405180910390f35b34801561074d57600080fd5b50d3801561075a57600080fd5b50d2801561076757600080fd5b506107bc600480360381019080803573ffffffffffffffffffffffffffffffffffffffff169060200190929190803573ffffffffffffffffffffffffffffffffffffffff1690602001909291905050506114c7565b6040518082815260200191505060405180910390f35b3480156107de57600080fd5b50d380156107eb57600080fd5b50d280156107f857600080fd5b5061082d600480360381019080803573ffffffffffffffffffffffffffffffffffffffff16906020019092919050505061154e565b005b60018054600181600116156101000203166002900480601f0160208091040260200160405190810160405280929190818152602001828054600181600116156101000203166002900480156108c55780601f1061089a576101008083540402835291602001916108c5565b820191906000526020600020905b8154815290600101906020018083116108a857829003601f168201915b505050505081565b600081600560003373ffffffffffffffffffffffffffffffffffffffff1673ffffffffffffffffffffffffffffffffffffffff168152602001908152602001600020541015801561091e5750600082115b151561092957600080fd5b81600660003373ffffffffffffffffffffffffffffffffffffffff1673ffffffffffffffffffffffffffffffffffffffff16815260200190815260200160002060008573ffffffffffffffffffffffffffffffffffffffff1673ffffffffffffffffffffffffffffffffffffffff168152602001908152602001600020819055508273ffffffffffffffffffffffffffffffffffffffff163373ffffffffffffffffffffffffffffffffffffffff167f8c5be1e5ebec7d5bd14f71427d1e84f3dd0314c0f7b2291e5b200ac8c7c3b925846040518082815260200191505060405180910390a36001905092915050565b6000600454905090565b600760009054906101000a900473ffffffffffffffffffffffffffffffffffffffff1681565b600081600660008673ffffffffffffffffffffffffffffffffffffffff1673ffffffffffffffffffffffffffffffffffffffff16815260200190815260200160002060003373ffffffffffffffffffffffffffffffffffffffff1673ffffffffffffffffffffffffffffffffffffffff1681526020019081526020016000205410158015610b16575081600560008673ffffffffffffffffffffffffffffffffffffffff1673ffffffffffffffffffffffffffffffffffffffff1681526020019081526020016000205410155b8015610b225750600082115b1515610b2d57600080fd5b610b7f82600560008773ffffffffffffffffffffffffffffffffffffffff1673ffffffffffffffffffffffffffffffffffffffff168152602001908152602001600020546115ec90919063ffffffff16565b600560008673ffffffffffffffffffffffffffffffffffffffff1673ffffffffffffffffffffffffffffffffffffffff16815260200190815260200160002081905550610c1482600560008673ffffffffffffffffffffffffffffffffffffffff1673ffffffffffffffffffffffffffffffffffffffff1681526020019081526020016000205461160590919063ffffffff16565b600560008573ffffffffffffffffffffffffffffffffffffffff1673ffffffffffffffffffffffffffffffffffffffff16815260200190815260200160002081905550610ce682600660008773ffffffffffffffffffffffffffffffffffffffff1673ffffffffffffffffffffffffffffffffffffffff16815260200190815260200160002060003373ffffffffffffffffffffffffffffffffffffffff1673ffffffffffffffffffffffffffffffffffffffff168152602001908152602001600020546115ec90919063ffffffff16565b600660008673ffffffffffffffffffffffffffffffffffffffff1673ffffffffffffffffffffffffffffffffffffffff16815260200190815260200160002060003373ffffffffffffffffffffffffffffffffffffffff1673ffffffffffffffffffffffffffffffffffffffff168152602001908152602001600020819055508273ffffffffffffffffffffffffffffffffffffffff168473ffffffffffffffffffffffffffffffffffffffff167fddf252ad1be2c89b69c2b068fc378daa952ba7f163c4a11628f55a4df523b3ef846040518082815260200191505060405180910390a3600190509392505050565b600760009054906101000a900473ffffffffffffffffffffffffffffffffffffffff1673ffffffffffffffffffffffffffffffffffffffff163373ffffffffffffffffffffffffffffffffffffffff16141515610e3257600080fd5b80600560008473ffffffffffffffffffffffffffffffffffffffff1673ffffffffffffffffffffffffffffffffffffffff1681526020019081526020016000205410151515610e8057600080fd5b610ed281600560008573ffffffffffffffffffffffffffffffffffffffff1673ffffffffffffffffffffffffffffffffffffffff168152602001908152602001600020546115ec90919063ffffffff16565b600560008473ffffffffffffffffffffffffffffffffffffffff1673ffffffffffffffffffffffffffffffffffffffff16815260200190815260200160002081905550610f898160056000600760009054906101000a900473ffffffffffffffffffffffffffffffffffffffff1673ffffffffffffffffffffffffffffffffffffffff1673ffffffffffffffffffffffffffffffffffffffff1681526020019081526020016000205461160590919063ffffffff16565b60056000600760009054906101000a900473ffffffffffffffffffffffffffffffffffffffff1673ffffffffffffffffffffffffffffffffffffffff1673ffffffffffffffffffffffffffffffffffffffff168152602001908152602001600020819055503373ffffffffffffffffffffffffffffffffffffffff168273ffffffffffffffffffffffffffffffffffffffff167fddf252ad1be2c89b69c2b068fc378daa952ba7f163c4a11628f55a4df523b3ef836040518082815260200191505060405180910390a35050565b60035481565b60045481565b600760009054906101000a900473ffffffffffffffffffffffffffffffffffffffff1673ffffffffffffffffffffffffffffffffffffffff163373ffffffffffffffffffffffffffffffffffffffff161415156110bf57600080fd5b6111338160056000600760009054906101000a900473ffffffffffffffffffffffffffffffffffffffff1673ffffffffffffffffffffffffffffffffffffffff1673ffffffffffffffffffffffffffffffffffffffff1681526020019081526020016000205461160590919063ffffffff16565b60056000600760009054906101000a900473ffffffffffffffffffffffffffffffffffffffff1673ffffffffffffffffffffffffffffffffffffffff1673ffffffffffffffffffffffffffffffffffffffff168152602001908152602001600020819055506111ad8160085461160590919063ffffffff16565b60088190555050565b6000600854905090565b6000600560008373ffffffffffffffffffffffffffffffffffffffff1673ffffffffffffffffffffffffffffffffffffffff168152602001908152602001600020549050919050565b60085481565b6000809054906101000a900473ffffffffffffffffffffffffffffffffffffffff1681565b60028054600181600116156101000203166002900480601f0160208091040260200160405190810160405280929190818152602001828054600181600116156101000203166002900480156112ca5780601f1061129f576101008083540402835291602001916112ca565b820191906000526020600020905b8154815290600101906020018083116112ad57829003601f168201915b505050505081565b600081600560003373ffffffffffffffffffffffffffffffffffffffff1673ffffffffffffffffffffffffffffffffffffffff16815260200190815260200160002054101580156113235750600082115b151561132e57600080fd5b61138082600560003373ffffffffffffffffffffffffffffffffffffffff1673ffffffffffffffffffffffffffffffffffffffff168152602001908152602001600020546115ec90919063ffffffff16565b600560003373ffffffffffffffffffffffffffffffffffffffff1673ffffffffffffffffffffffffffffffffffffffff1681526020019081526020016000208190555061141582600560008673ffffffffffffffffffffffffffffffffffffffff1673ffffffffffffffffffffffffffffffffffffffff1681526020019081526020016000205461160590919063ffffffff16565b600560008573ffffffffffffffffffffffffffffffffffffffff1673ffffffffffffffffffffffffffffffffffffffff168152602001908152602001600020819055508273ffffffffffffffffffffffffffffffffffffffff163373ffffffffffffffffffffffffffffffffffffffff167fddf252ad1be2c89b69c2b068fc378daa952ba7f163c4a11628f55a4df523b3ef846040518082815260200191505060405180910390a36001905092915050565b6000600660008473ffffffffffffffffffffffffffffffffffffffff1673ffffffffffffffffffffffffffffffffffffffff16815260200190815260200160002060008373ffffffffffffffffffffffffffffffffffffffff1673ffffffffffffffffffffffffffffffffffffffff16815260200190815260200160002054905092915050565b3373ffffffffffffffffffffffffffffffffffffffff166000809054906101000a900473ffffffffffffffffffffffffffffffffffffffff1673ffffffffffffffffffffffffffffffffffffffff161415156115a957600080fd5b806000806101000a81548173ffffffffffffffffffffffffffffffffffffffff021916908373ffffffffffffffffffffffffffffffffffffffff16021790555050565b60008282111515156115fa57fe5b818303905092915050565b600080828401905083811015151561161957fe5b80915050929150505600a165627a7a723058200292b4a93daf04b126b8226df384a5b3f2329850c3a27717c0d1de3d9fd7ea6f0029",
  "source": "pragma solidity ^0.4.23;\n\nlibrary SafeMath {\n    function mul(uint256 a, uint256 b) internal pure returns (uint256) {\n        uint256 c = a * b;\n        assert(a == 0 || c / a == b);\n        return c;\n    }\n\n    function div(uint256 a, uint256 b) internal pure returns (uint256) {\n        // assert(b > 0); // Solidity automatically throws when dividing by 0\n        uint256 c = a / b;\n        // assert(a == b * c + a % b); // There is no case in which this doesn't hold\n        return c;\n    }\n\n    function sub(uint256 a, uint256 b) internal pure returns (uint256) {\n        assert(b <= a);\n        return a - b;\n    }\n\n    function add(uint256 a, uint256 b) internal pure returns (uint256) {\n        uint256 c = a + b;\n        assert(c >= a);\n        return c;\n    }\n}\n\ncontract TRC20Interface {\n    function totalSupply() public constant returns (uint);\n    function balanceOf(address tokenOwner) public constant returns (uint balance);\n    function allowance(address tokenOwner, address spender) public constant returns (uint remaining);\n    function transfer(address to, uint tokens) public returns (bool success);\n    function approve(address spender, uint tokens) public returns (bool success);\n    function transferFrom(address from, address to, uint tokens) public returns (bool success);\n\n    event Transfer(address indexed from, address indexed to, uint tokens);\n    event Approval(address indexed tokenOwner, address indexed spender, uint tokens);\n}\n\ncontract Ownable {\n  address public owner;\n\n\n  /** \n   * @dev The Ownable constructor sets the original `owner` of the contract to the sender\n   * account.\n   */\n  constructor () public{\n    owner = msg.sender;\n  }\n\n\n  /**\n   * @dev Throws if called by any account other than the owner. \n   */\n  modifier onlyOwner() {\n    require(owner==msg.sender);\n    _;\n }\n\n  /**\n   * @dev Allows the current owner to transfer control of the contract to a newOwner.\n   * @param newOwner The address to transfer ownership to. \n   */\n  function transferOwnership(address newOwner) public onlyOwner {\n      owner = newOwner;\n  }\n \n}\n\ncontract AnteToken is Ownable, TRC20Interface {\n\n    using SafeMath for uint256;\n\n    // Token properties\n    string public name = \"Ante Tokenomics\";\n    string public symbol = \"ANTE\";\n    uint256 public decimals = 6;\n\n    uint256 public _totalSupply = 500000000e6;\n    \n    // Balances for each account\n    mapping (address => uint256) balances;\n\n    // Owner of account approves the transfer of an amount to another account\n    mapping (address => mapping(address => uint256)) allowed;\n    \n    // Wallet Address of Token\n    address public diceAddress;\n\n    //number of total tokens sold \n    uint256 public _minedSupply = 0;\n\n    event TokenPurchase(address indexed purchaser, address indexed beneficiary, uint256 value, uint256 amount);\n\n    constructor(address dice) public {\n        diceAddress = dice;\n\n        balances[diceAddress] = 0;\n\n        owner = msg.sender;\n    }\n\n    // Payable method\n    // @notice Anyone can buy the tokens on tokensale by paying ether\n    function () external payable {\n        revert();\n    }\n\n    function mine(uint256 value) public {\n        require(msg.sender == diceAddress);\n\n        balances[diceAddress] = balances[diceAddress].add(value);\n        _minedSupply = _minedSupply.add(value);\n    }\n\n    function freeze(address from, uint256 value) public {\n        require(msg.sender == diceAddress);\n        require(balances[from] >= value);\n        \n        balances[from] = balances[from].sub(value);\n        balances[diceAddress] = balances[diceAddress].add(value);\n        Transfer(from, msg.sender, value);\n    }\n\n    function minedSupply() public constant returns (uint256) {\n        return _minedSupply;\n    }\n\n    // @return total tokens supplied\n    function totalSupply() public constant returns (uint256) {\n        return _totalSupply;\n    }\n    \n    // // @return total tokens supplied\n    // function totalNumberTokenSold() public view returns (uint256) {\n    //     return totalNumberTokenSold;\n    // }\n\n    // What is the balance of a particular account?\n    // @param who The address of the particular account\n    // @return the balanace the particular account\n    function balanceOf(address who) public constant returns (uint256) {\n        return balances[who];\n    }\n\n    // @notice send `value` token to `to` from `msg.sender`\n    // @param to The address of the recipient\n    // @param value The amount of token to be transferred\n    // @return the transaction address and send the event as Transfer\n    function transfer(address to, uint256 value) public returns (bool success)  {\n        require (\n            balances[msg.sender] >= value && value > 0\n        );\n        balances[msg.sender] = balances[msg.sender].sub(value);\n        balances[to] = balances[to].add(value);\n        Transfer(msg.sender, to, value);\n        return true;\n    }\n\n    // @notice send `value` token to `to` from `from`\n    // @param from The address of the sender\n    // @param to The address of the recipient\n    // @param value The amount of token to be transferred\n    // @return the transaction address and send the event as Transfer\n    function transferFrom(address from, address to, uint256 value) public returns (bool success)  {\n        require (\n            allowed[from][msg.sender] >= value && balances[from] >= value && value > 0\n        );\n        balances[from] = balances[from].sub(value);\n        balances[to] = balances[to].add(value);\n        allowed[from][msg.sender] = allowed[from][msg.sender].sub(value);\n        Transfer(from, to, value);\n        return true;\n    }\n\n    // Allow spender to withdraw from your account, multiple times, up to the value amount.\n    // If this function is called again it overwrites the current allowance with value.\n    // @param spender The address of the sender\n    // @param value The amount to be approved\n    // @return the transaction address and send the event as Approval\n    function approve(address spender, uint256 value) public returns (bool success)  {\n        require (\n            balances[msg.sender] >= value && value > 0\n        );\n        allowed[msg.sender][spender] = value;\n        Approval(msg.sender, spender, value);\n        return true;\n    }\n\n    // Check the allowed value for the spender to withdraw from owner\n    // @param owner The address of the owner\n    // @param spender The address of the spender\n    // @return the amount which spender is still allowed to withdraw from owner\n    function allowance(address _owner, address spender) public constant returns (uint256) {\n        return allowed[_owner][spender];\n    }\n}\n",
  "sourcePath": "/Volumes/Backup/workspace/Gabi(Tron_Dice)/Dice/contracts/AnteToken.Sol",
  "compiler": {
    "name": "solc",
    "version": "0.4.25+commit.69a1e720.Emscripten.clang"
  },
  "schemaVersion": "2.0.1",
  "updatedAt": "2019-05-18T14:03:54.845Z"
}