{
  "contractName": "Dice",
  "abi": [
    {
      "constant": true,
      "inputs": [],
      "name": "totalFrozenTokens",
      "outputs": [
        {
          "name": "",
          "type": "uint256"
        }
      ],
      "payable": false,
      "stateMutability": "view",
      "type": "function"
    },
    {
      "constant": true,
      "inputs": [],
      "name": "minimum",
      "outputs": [
        {
          "name": "",
          "type": "uint256"
        }
      ],
      "payable": false,
      "stateMutability": "view",
      "type": "function"
    },
    {
      "constant": true,
      "inputs": [],
      "name": "tokenContract",
      "outputs": [
        {
          "name": "",
          "type": "address"
        }
      ],
      "payable": false,
      "stateMutability": "view",
      "type": "function"
    },
    {
      "constant": true,
      "inputs": [],
      "name": "owner",
      "outputs": [
        {
          "name": "",
          "type": "address"
        }
      ],
      "payable": false,
      "stateMutability": "view",
      "type": "function"
    },
    {
      "constant": true,
      "inputs": [],
      "name": "tokenAddress",
      "outputs": [
        {
          "name": "",
          "type": "address"
        }
      ],
      "payable": false,
      "stateMutability": "view",
      "type": "function"
    },
    {
      "constant": true,
      "inputs": [],
      "name": "diceRange",
      "outputs": [
        {
          "name": "",
          "type": "uint256"
        }
      ],
      "payable": false,
      "stateMutability": "view",
      "type": "function"
    },
    {
      "inputs": [],
      "payable": false,
      "stateMutability": "nonpayable",
      "type": "constructor"
    },
    {
      "constant": false,
      "inputs": [
        {
          "name": "_tokenAddress",
          "type": "address"
        }
      ],
      "name": "setTokenContract",
      "outputs": [],
      "payable": false,
      "stateMutability": "nonpayable",
      "type": "function"
    },
    {
      "constant": false,
      "inputs": [
        {
          "name": "_owner",
          "type": "address"
        }
      ],
      "name": "changeOwner",
      "outputs": [],
      "payable": false,
      "stateMutability": "nonpayable",
      "type": "function"
    },
    {
      "constant": false,
      "inputs": [
        {
          "name": "newOwner",
          "type": "address"
        }
      ],
      "name": "transferOwnership",
      "outputs": [],
      "payable": false,
      "stateMutability": "nonpayable",
      "type": "function"
    },
    {
      "constant": false,
      "inputs": [],
      "name": "sendTestTRX",
      "outputs": [],
      "payable": true,
      "stateMutability": "payable",
      "type": "function"
    },
    {
      "constant": false,
      "inputs": [
        {
          "name": "under",
          "type": "bool"
        },
        {
          "name": "player",
          "type": "string"
        },
        {
          "name": "userRoll",
          "type": "uint256"
        },
        {
          "name": "betAmount",
          "type": "uint256"
        },
        {
          "name": "payoutX",
          "type": "uint256"
        }
      ],
      "name": "rollDice",
      "outputs": [],
      "payable": true,
      "stateMutability": "payable",
      "type": "function"
    },
    {
      "constant": false,
      "inputs": [
        {
          "name": "value",
          "type": "uint256"
        }
      ],
      "name": "withdrawToken",
      "outputs": [],
      "payable": false,
      "stateMutability": "nonpayable",
      "type": "function"
    },
    {
      "constant": false,
      "inputs": [
        {
          "name": "value",
          "type": "uint256"
        }
      ],
      "name": "freezeToken",
      "outputs": [],
      "payable": false,
      "stateMutability": "nonpayable",
      "type": "function"
    },
    {
      "constant": false,
      "inputs": [
        {
          "name": "value",
          "type": "uint256"
        }
      ],
      "name": "unFreezeToken",
      "outputs": [],
      "payable": false,
      "stateMutability": "nonpayable",
      "type": "function"
    },
    {
      "constant": false,
      "inputs": [],
      "name": "dailyReward",
      "outputs": [],
      "payable": false,
      "stateMutability": "nonpayable",
      "type": "function"
    },
    {
      "constant": true,
      "inputs": [],
      "name": "checkContractBalance",
      "outputs": [
        {
          "name": "",
          "type": "uint256"
        }
      ],
      "payable": false,
      "stateMutability": "view",
      "type": "function"
    },
    {
      "constant": true,
      "inputs": [],
      "name": "checkHistoryLength",
      "outputs": [
        {
          "name": "",
          "type": "uint256"
        }
      ],
      "payable": false,
      "stateMutability": "view",
      "type": "function"
    },
    {
      "constant": true,
      "inputs": [],
      "name": "checkFrozenBalance",
      "outputs": [
        {
          "name": "",
          "type": "uint256"
        }
      ],
      "payable": false,
      "stateMutability": "view",
      "type": "function"
    },
    {
      "constant": true,
      "inputs": [],
      "name": "checkUnfrozenBalance",
      "outputs": [
        {
          "name": "",
          "type": "uint256"
        }
      ],
      "payable": false,
      "stateMutability": "view",
      "type": "function"
    },
    {
      "constant": true,
      "inputs": [],
      "name": "checkTotalFrozenTokens",
      "outputs": [
        {
          "name": "",
          "type": "uint256"
        }
      ],
      "payable": false,
      "stateMutability": "view",
      "type": "function"
    },
    {
      "constant": true,
      "inputs": [
        {
          "name": "_id",
          "type": "uint256"
        }
      ],
      "name": "checkHistory",
      "outputs": [
        {
          "name": "playerAddress",
          "type": "address"
        },
        {
          "name": "player",
          "type": "string"
        },
        {
          "name": "userRoll",
          "type": "uint256"
        },
        {
          "name": "betAmount",
          "type": "uint256"
        },
        {
          "name": "time",
          "type": "uint256"
        },
        {
          "name": "roll",
          "type": "uint256"
        },
        {
          "name": "payoutAmount",
          "type": "uint256"
        }
      ],
      "payable": false,
      "stateMutability": "view",
      "type": "function"
    },
    {
      "constant": true,
      "inputs": [],
      "name": "test",
      "outputs": [
        {
          "name": "",
          "type": "address"
        }
      ],
      "payable": false,
      "stateMutability": "view",
      "type": "function"
    }
  ],
  "bytecode": "0x60806040526064600255620f424060035534801561001c57600080fd5b50d3801561002957600080fd5b50d2801561003657600080fd5b5033600460006101000a81548173ffffffffffffffffffffffffffffffffffffffff021916908373ffffffffffffffffffffffffffffffffffffffff160217905550611fac806100876000396000f300608060405260043610610128576000357c0100000000000000000000000000000000000000000000000000000000900463ffffffff16806316af077a1461012d5780632115be1b1461017257806321d2daa01461028857806329bc499d146102cf5780634969a01e1461031457806350312c9e1461035957806350baa6221461039e57806352d6804d146103e557806355a373d61461042a5780638da5cb5b1461049b5780639d76ea581461050c578063a6f9dae11461057d578063b6854f96146105da578063bbcd5bbe14610621578063c17572601461067e578063c39f5e5c14610704578063c964ad4514610749578063d0393c421461077a578063d862ee0d14610784578063f2fde38b146107c9578063f8a8fd6d14610826578063ff59abc414610897575b600080fd5b34801561013957600080fd5b50d3801561014657600080fd5b50d2801561015357600080fd5b5061015c6108dc565b6040518082815260200191505060405180910390f35b34801561017e57600080fd5b50d3801561018b57600080fd5b50d2801561019857600080fd5b506101b760048036038101908080359060200190929190505050610923565b604051808873ffffffffffffffffffffffffffffffffffffffff1673ffffffffffffffffffffffffffffffffffffffff16815260200180602001878152602001868152602001858152602001848152602001838152602001828103825288818151815260200191508051906020019080838360005b8381101561024757808201518184015260208101905061022c565b50505050905090810190601f1680156102745780820380516001836020036101000a031916815260200191505b509850505050505050505060405180910390f35b34801561029457600080fd5b50d380156102a157600080fd5b50d280156102ae57600080fd5b506102cd60048036038101908080359060200190929190505050610acc565b005b3480156102db57600080fd5b50d380156102e857600080fd5b50d280156102f557600080fd5b506102fe610c90565b6040518082815260200191505060405180910390f35b34801561032057600080fd5b50d3801561032d57600080fd5b50d2801561033a57600080fd5b50610343610c9a565b6040518082815260200191505060405180910390f35b34801561036557600080fd5b50d3801561037257600080fd5b50d2801561037f57600080fd5b50610388610ca0565b6040518082815260200191505060405180910390f35b3480156103aa57600080fd5b50d380156103b757600080fd5b50d280156103c457600080fd5b506103e360048036038101908080359060200190929190505050610cbf565b005b3480156103f157600080fd5b50d380156103fe57600080fd5b50d2801561040b57600080fd5b50610414610f9a565b6040518082815260200191505060405180910390f35b34801561043657600080fd5b50d3801561044357600080fd5b50d2801561045057600080fd5b50610459610fa0565b604051808273ffffffffffffffffffffffffffffffffffffffff1673ffffffffffffffffffffffffffffffffffffffff16815260200191505060405180910390f35b3480156104a757600080fd5b50d380156104b457600080fd5b50d280156104c157600080fd5b506104ca610fc6565b604051808273ffffffffffffffffffffffffffffffffffffffff1673ffffffffffffffffffffffffffffffffffffffff16815260200191505060405180910390f35b34801561051857600080fd5b50d3801561052557600080fd5b50d2801561053257600080fd5b5061053b610fec565b604051808273ffffffffffffffffffffffffffffffffffffffff1673ffffffffffffffffffffffffffffffffffffffff16815260200191505060405180910390f35b34801561058957600080fd5b50d3801561059657600080fd5b50d280156105a357600080fd5b506105d8600480360381019080803573ffffffffffffffffffffffffffffffffffffffff169060200190929190505050611012565b005b3480156105e657600080fd5b50d380156105f357600080fd5b50d2801561060057600080fd5b5061061f600480360381019080803590602001909291905050506110b2565b005b34801561062d57600080fd5b50d3801561063a57600080fd5b50d2801561064757600080fd5b5061067c600480360381019080803573ffffffffffffffffffffffffffffffffffffffff16906020019092919050505061133f565b005b610702600480360381019080803515159060200190929190803590602001908201803590602001908080601f016020809104026020016040519081016040528093929190818152602001838380828437820191505050505050919291929080359060200190929190803590602001909291908035906020019092919050505061147e565b005b34801561071057600080fd5b50d3801561071d57600080fd5b50d2801561072a57600080fd5b50610733611823565b6040518082815260200191505060405180910390f35b34801561075557600080fd5b50d3801561076257600080fd5b50d2801561076f57600080fd5b50610778611829565b005b610782611abf565b005b34801561079057600080fd5b50d3801561079d57600080fd5b50d280156107aa57600080fd5b506107b3611ac1565b6040518082815260200191505060405180910390f35b3480156107d557600080fd5b50d380156107e257600080fd5b50d280156107ef57600080fd5b50610824600480360381019080803573ffffffffffffffffffffffffffffffffffffffff169060200190929190505050611acd565b005b34801561083257600080fd5b50d3801561083f57600080fd5b50d2801561084c57600080fd5b50610855611ba9565b604051808273ffffffffffffffffffffffffffffffffffffffff1673ffffffffffffffffffffffffffffffffffffffff16815260200191505060405180910390f35b3480156108a357600080fd5b50d380156108b057600080fd5b50d280156108bd57600080fd5b506108c6611bd3565b6040518082815260200191505060405180910390f35b6000600860003373ffffffffffffffffffffffffffffffffffffffff1673ffffffffffffffffffffffffffffffffffffffff16815260200190815260200160002054905090565b600060606000806000806000610937611e87565b60008981548110151561094657fe5b906000526020600020906007020160e060405190810160405290816000820160009054906101000a900473ffffffffffffffffffffffffffffffffffffffff1673ffffffffffffffffffffffffffffffffffffffff1673ffffffffffffffffffffffffffffffffffffffff168152602001600182018054600181600116156101000203166002900480601f016020809104026020016040519081016040528092919081815260200182805460018160011615610100020316600290048015610a4f5780601f10610a2457610100808354040283529160200191610a4f565b820191906000526020600020905b815481529060010190602001808311610a3257829003601f168201915b50505050508152602001600282015481526020016003820154815260200160048201548152602001600582015481526020016006820154815250509050806000015181602001518260400151836060015184608001518560a001518660c00151859550975097509750975097509750975050919395979092949650565b80600760003373ffffffffffffffffffffffffffffffffffffffff1673ffffffffffffffffffffffffffffffffffffffff1681526020019081526020016000205410151515610b1a57600080fd5b610bab600760003373ffffffffffffffffffffffffffffffffffffffff1673ffffffffffffffffffffffffffffffffffffffff16815260200190815260200160002054600860003373ffffffffffffffffffffffffffffffffffffffff1673ffffffffffffffffffffffffffffffffffffffff16815260200190815260200160002054611c1a90919063ffffffff16565b600860003373ffffffffffffffffffffffffffffffffffffffff1673ffffffffffffffffffffffffffffffffffffffff16815260200190815260200160002081905550610c42600760003373ffffffffffffffffffffffffffffffffffffffff1673ffffffffffffffffffffffffffffffffffffffff16815260200190815260200160002054600954611c3890919063ffffffff16565b6009819055506000600760003373ffffffffffffffffffffffffffffffffffffffff1673ffffffffffffffffffffffffffffffffffffffff1681526020019081526020016000208190555050565b6000600954905090565b60095481565b60003073ffffffffffffffffffffffffffffffffffffffff1631905090565b80600860003373ffffffffffffffffffffffffffffffffffffffff1673ffffffffffffffffffffffffffffffffffffffff1681526020019081526020016000205410151515610d0d57600080fd5b80600660009054906101000a900473ffffffffffffffffffffffffffffffffffffffff1673ffffffffffffffffffffffffffffffffffffffff166370a08231306040518263ffffffff167c0100000000000000000000000000000000000000000000000000000000028152600401808273ffffffffffffffffffffffffffffffffffffffff1673ffffffffffffffffffffffffffffffffffffffff168152602001915050602060405180830381600087803b158015610dcb57600080fd5b505af1158015610ddf573d6000803e3d6000fd5b505050506040513d6020811015610df557600080fd5b8101908080519060200190929190505050111515610e1257600080fd5b600660009054906101000a900473ffffffffffffffffffffffffffffffffffffffff1673ffffffffffffffffffffffffffffffffffffffff1663a9059cbb33600860003373ffffffffffffffffffffffffffffffffffffffff1673ffffffffffffffffffffffffffffffffffffffff168152602001908152602001600020546040518363ffffffff167c0100000000000000000000000000000000000000000000000000000000028152600401808373ffffffffffffffffffffffffffffffffffffffff1673ffffffffffffffffffffffffffffffffffffffff16815260200182815260200192505050602060405180830381600087803b158015610f1657600080fd5b505af1158015610f2a573d6000803e3d6000fd5b505050506040513d6020811015610f4057600080fd5b8101908080519060200190929190505050506000600860003373ffffffffffffffffffffffffffffffffffffffff1673ffffffffffffffffffffffffffffffffffffffff1681526020019081526020016000208190555050565b60035481565b600660009054906101000a900473ffffffffffffffffffffffffffffffffffffffff1681565b600460009054906101000a900473ffffffffffffffffffffffffffffffffffffffff1681565b600560009054906101000a900473ffffffffffffffffffffffffffffffffffffffff1681565b600460009054906101000a900473ffffffffffffffffffffffffffffffffffffffff1673ffffffffffffffffffffffffffffffffffffffff163373ffffffffffffffffffffffffffffffffffffffff1614151561106e57600080fd5b80600460006101000a81548173ffffffffffffffffffffffffffffffffffffffff021916908373ffffffffffffffffffffffffffffffffffffffff16021790555050565b6000600660009054906101000a900473ffffffffffffffffffffffffffffffffffffffff1673ffffffffffffffffffffffffffffffffffffffff166370a08231336040518263ffffffff167c0100000000000000000000000000000000000000000000000000000000028152600401808273ffffffffffffffffffffffffffffffffffffffff1673ffffffffffffffffffffffffffffffffffffffff168152602001915050602060405180830381600087803b15801561117157600080fd5b505af1158015611185573d6000803e3d6000fd5b505050506040513d602081101561119b57600080fd5b81019080805190602001909291905050509050600660009054906101000a900473ffffffffffffffffffffffffffffffffffffffff1673ffffffffffffffffffffffffffffffffffffffff166324bce60c33836040518363ffffffff167c0100000000000000000000000000000000000000000000000000000000028152600401808373ffffffffffffffffffffffffffffffffffffffff1673ffffffffffffffffffffffffffffffffffffffff16815260200182815260200192505050600060405180830381600087803b15801561127357600080fd5b505af1158015611287573d6000803e3d6000fd5b505050506112dd81600760003373ffffffffffffffffffffffffffffffffffffffff1673ffffffffffffffffffffffffffffffffffffffff16815260200190815260200160002054611c1a90919063ffffffff16565b600760003373ffffffffffffffffffffffffffffffffffffffff1673ffffffffffffffffffffffffffffffffffffffff1681526020019081526020016000208190555061133581600954611c1a90919063ffffffff16565b6009819055505050565b600460009054906101000a900473ffffffffffffffffffffffffffffffffffffffff1673ffffffffffffffffffffffffffffffffffffffff163373ffffffffffffffffffffffffffffffffffffffff1614151561139b57600080fd5b600073ffffffffffffffffffffffffffffffffffffffff168173ffffffffffffffffffffffffffffffffffffffff16141515156113d757600080fd5b80600560006101000a81548173ffffffffffffffffffffffffffffffffffffffff021916908373ffffffffffffffffffffffffffffffffffffffff160217905550600560009054906101000a900473ffffffffffffffffffffffffffffffffffffffff16600660006101000a81548173ffffffffffffffffffffffffffffffffffffffff021916908373ffffffffffffffffffffffffffffffffffffffff16021790555050565b6000806000600354341015151561149457600080fd5b34851415156114a257600080fd5b4260405180828152602001915050604051809103902060019004925060009150600254838115156114cf57fe5b069050600115158815151480156114e557508581105b156114fc5760648486028115156114f857fe5b0491505b6000151588151514801561150f57508581115b1561152657606484860281151561152257fe5b0491505b6000600660009054906101000a900473ffffffffffffffffffffffffffffffffffffffff1673ffffffffffffffffffffffffffffffffffffffff166370a08231336040518263ffffffff167c0100000000000000000000000000000000000000000000000000000000028152600401808273ffffffffffffffffffffffffffffffffffffffff1673ffffffffffffffffffffffffffffffffffffffff168152602001915050602060405180830381600087803b1580156115e557600080fd5b505af11580156115f9573d6000803e3d6000fd5b505050506040513d602081101561160f57600080fd5b8101908080519060200190929190505050141561168d5760013390806001815401808255809150509060018203906000526020600020016000909192909190916101000a81548173ffffffffffffffffffffffffffffffffffffffff021916908373ffffffffffffffffffffffffffffffffffffffff160217905550505b6116973433611c51565b600060e0604051908101604052803373ffffffffffffffffffffffffffffffffffffffff168152602001898152602001888152602001878152602001428152602001838152602001848152509080600181540180825580915050906001820390600052602060002090600702016000909192909190915060008201518160000160006101000a81548173ffffffffffffffffffffffffffffffffffffffff021916908373ffffffffffffffffffffffffffffffffffffffff1602179055506020820151816001019080519060200190611771929190611edb565b5060408201518160020155606082015181600301556080820151816004015560a0820151816005015560c0820151816006015550505060008214151561181957813073ffffffffffffffffffffffffffffffffffffffff16311115611818573373ffffffffffffffffffffffffffffffffffffffff166108fc839081150290604051600060405180830381858888f19350505050158015611816573d6000803e3d6000fd5b505b5b5050505050505050565b60025481565b6000806000806000809450600093503073ffffffffffffffffffffffffffffffffffffffff16319250600a6004840281151561186157fe5b0491508183039050600460009054906101000a900473ffffffffffffffffffffffffffffffffffffffff1673ffffffffffffffffffffffffffffffffffffffff166108fc839081150290604051600060405180830381858888f193505050501580156118d1573d6000803e3d6000fd5b50600094505b600180549050851015611ab857600760006001878154811015156118f757fe5b9060005260206000200160009054906101000a900473ffffffffffffffffffffffffffffffffffffffff1673ffffffffffffffffffffffffffffffffffffffff1673ffffffffffffffffffffffffffffffffffffffff168152602001908152602001600020546009548281151561196a57fe5b04029350833073ffffffffffffffffffffffffffffffffffffffff1631101515611a135760018581548110151561199d57fe5b9060005260206000200160009054906101000a900473ffffffffffffffffffffffffffffffffffffffff1673ffffffffffffffffffffffffffffffffffffffff166108fc859081150290604051600060405180830381858888f19350505050158015611a0d573d6000803e3d6000fd5b50611aab565b600185815481101515611a2257fe5b9060005260206000200160009054906101000a900473ffffffffffffffffffffffffffffffffffffffff1673ffffffffffffffffffffffffffffffffffffffff166108fc3073ffffffffffffffffffffffffffffffffffffffff16319081150290604051600060405180830381858888f19350505050158015611aa9573d6000803e3d6000fd5b505b84806001019550506118d7565b5050505050565b565b60008080549050905090565b600460009054906101000a900473ffffffffffffffffffffffffffffffffffffffff1673ffffffffffffffffffffffffffffffffffffffff163373ffffffffffffffffffffffffffffffffffffffff16141515611b2957600080fd5b600073ffffffffffffffffffffffffffffffffffffffff168173ffffffffffffffffffffffffffffffffffffffff1614151515611b6557600080fd5b80600460006101000a81548173ffffffffffffffffffffffffffffffffffffffff021916908373ffffffffffffffffffffffffffffffffffffffff16021790555050565b6000600560009054906101000a900473ffffffffffffffffffffffffffffffffffffffff16905090565b6000600760003373ffffffffffffffffffffffffffffffffffffffff1673ffffffffffffffffffffffffffffffffffffffff16815260200190815260200160002054905090565b6000808284019050838110151515611c2e57fe5b8091505092915050565b6000828211151515611c4657fe5b818303905092915050565b6000806000600660009054906101000a900473ffffffffffffffffffffffffffffffffffffffff1673ffffffffffffffffffffffffffffffffffffffff16636386d2ac6040518163ffffffff167c0100000000000000000000000000000000000000000000000000000000028152600401602060405180830381600087803b158015611cdc57600080fd5b505af1158015611cf0573d6000803e3d6000fd5b505050506040513d6020811015611d0657600080fd5b810190808051906020019092919050505092506014655af3107a400084811515611d2c57fe5b04026103e80191508185811515611d3f57fe5b049050600660009054906101000a900473ffffffffffffffffffffffffffffffffffffffff1673ffffffffffffffffffffffffffffffffffffffff16634d474898826040518263ffffffff167c010000000000000000000000000000000000000000000000000000000002815260040180828152602001915050600060405180830381600087803b158015611dd357600080fd5b505af1158015611de7573d6000803e3d6000fd5b50505050611e3d81600860008773ffffffffffffffffffffffffffffffffffffffff1673ffffffffffffffffffffffffffffffffffffffff16815260200190815260200160002054611c1a90919063ffffffff16565b600860008673ffffffffffffffffffffffffffffffffffffffff1673ffffffffffffffffffffffffffffffffffffffff168152602001908152602001600020819055505050505050565b60e060405190810160405280600073ffffffffffffffffffffffffffffffffffffffff1681526020016060815260200160008152602001600081526020016000815260200160008152602001600081525090565b828054600181600116156101000203166002900490600052602060002090601f016020900481019282601f10611f1c57805160ff1916838001178555611f4a565b82800160010185558215611f4a579182015b82811115611f49578251825591602001919060010190611f2e565b5b509050611f579190611f5b565b5090565b611f7d91905b80821115611f79576000816000905550600101611f61565b5090565b905600a165627a7a72305820f5cebd36f53288abe8b3f2ed9b155dd9ff8301fb07a0ad4e00e1ef5ce820fd950029",
  "source": "pragma solidity ^0.4.23;\nimport \"./AnteToken.Sol\";\n\ncontract Dice\n{\n    struct History {\n        address             playerAddress;\n        string              player;\n        uint256             userRoll;\n        uint256             betAmount;\n        uint256             time;\n        uint256             roll;\n        uint256             payoutAmount;\n    }\n\n    using SafeMath for uint256;\n\n    History[]                           histories;\n    address[]                           players;\n\n    uint256 public diceRange = 100;\n    uint256 public minimum = 1 trx;\n    address public owner;\n\n    address public          tokenAddress;\n    AnteToken public        tokenContract;\n\n    uint    constant private         STAGE_SETP_TOKEN = 1000000e8;\n    uint    constant private         STAGE_STEP_TRX = 20;\n    uint    constant private         BASE_TRX_TOKEN_RATIO = 1000;  \n\n    mapping (address => uint256) frozenBalances;\n    mapping (address => uint256) unfrozenBalances;\n\n    uint256 public totalFrozenTokens;\n    constructor() public\n    {\n        owner = msg.sender;\n    }\n\n    function setTokenContract(address _tokenAddress) public onlyOwner {\n        require(_tokenAddress != address(0x0));\n        tokenAddress =  _tokenAddress;\n        tokenContract = AnteToken(tokenAddress);\n    }\n\n    modifier onlyOwner()\n    {\n        require(msg.sender == owner);\n        _;\n    }\n\n    function changeOwner(address _owner) onlyOwner public\n    {\n        owner = _owner;\n    }\n\n    /**\n     * @dev Allows current owner to transfer control of the contract to a newOwner.\n     * @param newOwner The address to transfer ownership to.\n     */\n    function transferOwnership(address newOwner) public onlyOwner {\n        require(newOwner != address(0));\n        owner = newOwner;\n\n    }\n\n    function sendTestTRX() public payable {\n\n    }\n\n    function rollDice(bool under, string player, uint256 userRoll, uint256 betAmount, uint256 payoutX) public payable {\n        require(msg.value >= minimum);\n        require(betAmount == msg.value);\n\n        uint rand = uint(keccak256(block.timestamp));\n        uint payout = 0;\n        uint roll = rand % diceRange;\n\n        if((under == true) && (roll < userRoll)) {\n            payout = betAmount * payoutX / 100;\n        }\n\n        if((under == false) && (roll > userRoll)) {\n            payout = betAmount * payoutX / 100;\n        }\n\n        if (tokenContract.balanceOf(msg.sender) == 0) {\n            players.push(msg.sender);\n        }\n        _mineToken(msg.value, msg.sender);\n        histories.push(History(msg.sender, player, userRoll, betAmount, block.timestamp, roll, payout));\n\n        if (payout != 0) {\n            if (address(this).balance > payout) {\n                address(msg.sender).transfer(payout);\n            }\n            \n        }\n    }\n\n    function _mineToken(uint256 trxValue, address sender) private {\n        uint _minedSupply = tokenContract.minedSupply();\n        uint trxTokenRatio = 1000 + _minedSupply / STAGE_SETP_TOKEN * 20;\n        uint tokenToBeMined = trxValue / trxTokenRatio;\n\n        tokenContract.mine(tokenToBeMined);\n        unfrozenBalances[sender] = unfrozenBalances[sender].add(tokenToBeMined);\n    }\n\n    function withdrawToken(uint256 value) public {\n        require(unfrozenBalances[msg.sender] >= value);\n        require(tokenContract.balanceOf(address(this)) > value);\n\n        // tokenContract.transfer(msg.sender, value);\n        // unfrozenBalances[msg.sender] = unfrozenBalances[msg.sender].sub(value);\n\n        tokenContract.transfer(msg.sender, unfrozenBalances[msg.sender]);\n        unfrozenBalances[msg.sender] = 0;\n    }\n\n    function freezeToken(uint256 value) public {\n        // require(unfrozenBalances[msg.sender] > value);\n        // require(tokenContract.balanceOf(address(this)) > value);\n        uint256 tokenFromWallet = tokenContract.balanceOf(msg.sender);\n        tokenContract.freeze(msg.sender, tokenFromWallet);\n        \n        frozenBalances[msg.sender] = frozenBalances[msg.sender].add(tokenFromWallet);\n\n        totalFrozenTokens = totalFrozenTokens.add(tokenFromWallet);\n        // unfrozenBalances[msg.sender] = 0;\n    }\n\n    function unFreezeToken(uint256 value) public {\n        require(frozenBalances[msg.sender] >= value);\n        \n        // frozenBalances[msg.sender] = frozenBalances[msg.sender].sub(value);\n        // unfrozenBalances[msg.sender] = unfrozenBalances[msg.sender].add(value);\n        unfrozenBalances[msg.sender] = unfrozenBalances[msg.sender].add(frozenBalances[msg.sender]);\n        totalFrozenTokens = totalFrozenTokens.sub(frozenBalances[msg.sender]);\n        frozenBalances[msg.sender] = 0;\n        \n    }\n\n    function dailyReward() public {\n        uint256 index = 0;\n        uint256 reward = 0;\n        uint256 contractTRXBalance = address(this).balance;\n\n        uint256 rewardOwner = contractTRXBalance * 4 / 10;\n        uint256 rewardPool = contractTRXBalance - rewardOwner;\n\n        owner.transfer(rewardOwner);\n        for(index = 0; index < players.length; index ++) {\n            reward = rewardPool / totalFrozenTokens * frozenBalances[players[index]];\n            if (address(this).balance >= reward) {\n                players[index].transfer(reward);\n            } else {\n                players[index].transfer(address(this).balance);\n            }\n            \n        }\n    }\n\n\t/**\n    * @dev Gets balance of the sender address.\n    * @return An uint256 representing the amount owned by the msg.sender.\n    */\n    function checkContractBalance() public view returns (uint256) {\n        return address(this).balance;\n\n    }\n\n    function checkHistoryLength() public view returns(uint256) {\n        return histories.length;\n    }\n\n    function checkFrozenBalance() public view returns(uint256) {\n        return frozenBalances[msg.sender];\n    }\n\n    function checkUnfrozenBalance() public view returns(uint256) {\n        return unfrozenBalances[msg.sender];\n    }\n\n    function checkTotalFrozenTokens() public view returns(uint256) {\n        return totalFrozenTokens;\n    }\n\n    function checkHistory(uint _id) public view returns(address playerAddress, string player, uint256 userRoll, uint256 betAmount, uint256 time, uint256 roll, uint256 payoutAmount) {\n        History memory _history = histories[_id];\n        return (_history.playerAddress, _history.player, _history.userRoll, _history.betAmount, _history.time, _history.roll, _history.payoutAmount);\n    }\n\n    function test() public view returns(address) {\n        return tokenAddress;\n    }\n}\n",
  "sourcePath": "/Volumes/Backup/workspace/Gabi(Tron_Dice)/Dice/contracts/Dice.sol",
  "compiler": {
    "name": "solc",
    "version": "0.4.25+commit.69a1e720.Emscripten.clang"
  },
  "schemaVersion": "2.0.1",
  "updatedAt": "2019-05-18T14:03:54.855Z"
}